:020000020000FC
:100000000FEF0DBF18E01EBF259A249A239A229A5B
:10001000219A209A579A569A559A549A539A529AD4
:100020002D982C982B982A98299828985F985E9854
:100030005D985C985B985A98389839983A98409AA5
:10004000419A429A0E94350010E020E005B3013049
:10005000E9F703E606BDA89A13951436B9F70E948E
:100060003A0011270E946000F1CF05E005BD04E6CB
:1000700006BD08952395203109F0089520E00895E4
:10008000D395D03109F00895D0E008953395321713
:1000900019F0303109F0089530E00895F0E0FD0FD7
:1000A000FE0F0895D150DF3F09F00895DFE0089575
:1000B0003150321719F03F3F09F008953FE008959D
:1000C000213021F42D9A2C982B982A98223021F453
:1000D0002D982C9A2B982A98233021F42D9A2C9A1B
:1000E0002B982A98243021F42D982C982B9A2A9812
:1000F000253021F42D9A2C982B9A2A98263021F419
:100100002D982C9A2B9A2A98273021F42D9A2C9AE4
:100110002B9A2A98283021F42D982C982B982A9ADB
:10012000293021F42D9A2C982B982A9A2A3021F4E0
:100130002D982C9A2B982A9A2B3021F42D9A2C9AB0
:100140002B982A9A2C3021F42D982C982B9A2A9AA5
:100150002D3021F42D9A2C982B9A2A9A2E3021F4A6
:100160002D982C9A2B9A2A9A2F3021F42D9A2C9A7A
:100170002B9A2A9A203021F42D982C982B982A9883
:100180000895313041F4299828985F9A5E985D98D7
:100190005C985B985A9A323041F4299A289A5F9871
:1001A0005E985D9A5C985B9A5A9A333041F429982C
:1001B000289A5F9A5E985D9A5C9A5B985A9A343056
:1001C00041F4299828985F9A5E985D9A5C9A5B98AA
:1001D0005A9A353041F42998289A5F9A5E985D9A28
:1001E0005C9A5B9A5A98363041F4299A289A5F9A19
:1001F0005E985D985C9A5B9A5A98373041F42998DA
:1002000028985F9A5E985D9A5C985B9A5A9A383003
:1002100041F4299A289A5F9A5E985D9A5C9A5B9A53
:100220005A9A393041F4299828985F9A5E985D9AD5
:100230005C9A5B9A5A9A3A3041F4299A28985F9AC4
:100240005E985D9A5C9A5B9A5A9A3B3041F4299A7F
:10025000289A5F9A5E985D9A5C9A5B985A983C30AF
:1002600041F4299A289A5F985E985D985C9A5B9A07
:100270005A983D3041F4299A289A5F9A5E985D9A7F
:100280005C985B985A9A3E3041F4299A289A5F9874
:100290005E985D9A5C9A5B9A5A983F3041F429982F
:1002A00028985F9A5E985D9A5C9A5B9A5A9830306B
:1002B00041F4299A289A5F9A5E985D985C9A5B9AB5
:0402C0005A9A0895A9
:00000001FF
