:020000020000FC
:100000000FEF0DBF18E01EBF259A249A239A229A5B
:10001000219A209A579A569A559A549A539A529AD4
:100020002D982C982B982A98299828985F985E9854
:100030005D985C985B985A98389839983A98409AA5
:10004000419A429A0E94340010E020E005B301304A
:10005000E9F703E606BDA89A13951A3051F0B1F7F7
:1000600011270E945B00F2CF05E005BD04E606BD46
:1000700008952395203109F0089520E00895D3953F
:10008000D03109F00895D0E00895E395E03109F00A
:100090000895E0E00895F0E0FD0FFE0F0895D150BF
:1000A000DF3F09F00895DFE00895E150EF3F09F0E8
:1000B0000895EFE00895213021F42D9A2C982B9883
:1000C0002A98223021F42D982C9A2B982A982330A4
:1000D00021F42D9A2C9A2B982A98243021F42D98CB
:1000E0002C982B9A2A98253021F42D9A2C982B9A0B
:1000F0002A98263021F42D982C9A2B9A2A9827306A
:1001000021F42D9A2C9A2B9A2A98283021F42D9894
:100110002C982B982A9A293021F42D9A2C982B98D8
:100120002A9A2A3021F42D982C9A2B982A9A2B302F
:1001300021F42D9A2C9A2B982A9A2C3021F42D9860
:100140002C982B9A2A9A2D3021F42D9A2C982B9AA0
:100150002A9A2E3021F42D982C9A2B9A2A9A2F30F5
:1001600021F42D9A2C9A2B9A2A9A20302D982C988B
:060170002B982A98089567
:00000001FF
